:020000040800F2
:10000000A81200205502000825090008430800082E
:100010002109000871030008D50E00080000000047
:100020000000000000000000000000009D0100082A
:10003000C306000800000000F1010008ED0B0008F5
:100040006F0200086F0200086F0200086F020008CC
:100050006F0200086F0200086F0200086F020008BC
:100060006F0200086F0200086F0200086F020008AC
:100070006F0200086F0200086F0200086F0200089C
:100080006F0200086F0200086F020008A503000855
:10009000750300086F0200086F0200086F02000875
:1000A0006F020008650C00086F0200086F0200086C
:1000B000810C0008990C00086F0200086F0200080C
:1000C0006F0200086F0200086F0200086F0200084C
:1000D0006F020008DD0C0008FD0C00081D0D000873
:1000E0006F0200086F0200086F0200086F0200082C
:1000F0006F0200086F0200086F0200086F0200081C
:100100006F0200086F0200086F0200086F0200080B
:100110006F0200086F0200086F0200086F020008FB
:100120006F0200086F0200086F0200086F020008EB
:100130006F0200086F0200086F0200086F020008DB
:100140006F0200086F0200086F0200086F020008CB
:100150006F0200086F0200086F0200083D0D0008E2
:100160006F0200086F0200086F0200086F020008AB
:100170006F0200086F0200086F0200086F0200089B
:100180006F0200086F020008DFF80CD000F08AF858
:1001900000480047F5100008A81200202A4B1968F3
:1001A0000868B0E8F04F80F30988BFF36F8F4FF015
:1001B000000080F3118870470000000006480068C6
:1001C000006880F3088862B661B6BFF34F8FBFF353
:1001D0006F8F00DF00BF00BF08ED00E0DFF80C000C
:1001E000016841F470010160704700BF88ED00E0D4
:1001F000EFF30980BFF36F8F134B1A681EF0100FD7
:1002000008BF20ED108A20E9F04F106008B44FF0CD
:10021000500080F31188BFF34F8FBFF36F8F01F051
:100220005BFC4FF0000080F3118808BC1968086877
:10023000B0E8F04F1EF0100F08BFB0EC108A80F34A
:100240000988BFF36F8F70472C000020EFF3058003
:10025000704700000648804706480047FEE7FEE773
:10026000FEE7FEE7FEE7FEE7FEE7FEE7FEE7FEE766
:10027000FD0B00088901000830B50B46014600203F
:100280002022012409E021FA02F59D4205D303FA58
:1002900002F5491B04FA02F52844151EA2F10102D9
:1002A000F1DC30BD064C074D06E0E06840F001038C
:1002B00094E8070098471034AC42F6D3FFF768FF84
:1002C0005C2000087C2000080EB501F0F1F90F4811
:1002D0000F4904220023CDE90021029080220DA1C4
:1002E0000F4801F015FD0F4908600846006818B175
:1002F0000DA000F0F1FD02E011A000F0EDFD1648A8
:10030000006801F0F3FA01F015FA0EBDDC040020DC
:10031000900200204C45445F5461736B0000000064
:10032000B5080008180000204C45445F5461736B09
:10033000C8CECEF1B4B4BDA8B3C9B9A6210D0A0088
:100340004C45445F5461736BC8CECEF1B4B4BDA8C4
:10035000CAA7B0DC210D0A001400002010B54FF42C
:10036000407000F02FFB00F06FFA00F0ABF910BD09
:1003700000BFFEE700B585B00221094800F090F803
:1003800060B10421064800F037F80421044800F069
:1003900017F86A460021024800F012F905B000BDC6
:1003A0000064004010B50121044800F079F818B14C
:1003B0000121024800F020F810BD00000064004058
:1003C00000220C4B994202D10023836111E0C1F35A
:1003D000130201F000730BB1C2600AE001F0806308
:1003E0000BB1026105E001F000630BB1826000E037
:1003F000426070477000F030B1F5007F3AD00FDCFA
:10040000202928D006DC01291CD004291DD0082968
:1004100040D11DE0402921D0B1F5807F3AD126E0BE
:10042000B1F5004F31D006DCB1F5806F25D0B1F5C4
:10043000006F2FD124E0B1F5803F12D0B1F5003F1D
:1004400028D111E0154A826025E00822C26022E02E
:100450001022C2601FE0082202611CE0102202612B
:1004600019E00822426016E01022426013E00422E4
:10047000426010E0042242600DE0042242600AE083
:10048000002282610422426005E00022826104228F
:10049000426000E000BF00BF7047000001010100A2
:1004A00070B504460D46002660692840002871D0CA
:1004B000B5F5807F5CD010DC082D35D006DC012D31
:1004C00020D0022D24D0042D72D127E0102D31D060
:1004D000202D35D0402D6BD138E0B5F5004F60D0E0
:1004E00009DCB5F5007F49D0B5F5806F4CD0B5F586
:1004F000006F5DD14FE0B5F5803F2DD0B5F5003FE1
:1005000056D12FE0A0682D4900F0D2F8064651E000
:10051000E068032100F0CCF806464BE0E0680821D3
:1005200000F0C6F8064645E0E068102100F0C0F88B
:1005300006463FE02069032100F0BAF8064639E09C
:100540002069082100F0B4F8064633E02069102144
:1005500000F0AEF806462DE06068082100F0A8F82B
:10056000064627E06068102100F0A2F8064621E068
:10057000A069012100F09CF806461BE0A069022159
:1005800000F096F8064615E0A069042100F090F806
:1005900006460FE00FE0A069702100F089F80646DA
:1005A00008E06068042100F083F8064602E0FFE7F7
:1005B000002600BF00E00026304670BD01010100AA
:1005C00010B500F5D87303EB01131B6803F00403A7
:1005D0001372137A53B900F5D87303EB01131B6838
:1005E00040F2FF7404EA5353136009E000F5D87336
:1005F00003EB01131B686FF0604404EAD3035360FC
:1006000000F5D87303EB01131B6803F00203537268
:1006100000F5D87303EB01135B6803F00F039372CB
:1006200000F5D87303EB01135B681B0AD37400F564
:10063000D87303EB01139B68D37200F5D87303EBF7
:1006400001139B681C0A147300F5D87303EB0113A4
:100650009B681C0C547300F5D87303EB01139B6863
:100660001B0E937300F5D87303EB0113DB68D37390
:1006700000F5D87303EB0113DB681C0A147400F552
:10068000D87303EB0113DB681C0C547400F5D873AA
:1006900003EB0113DB681B0E937421B9C36843F0AD
:1006A0002003C36003E0036943F02003036110BD2E
:1006B0000246002002EA01030BB1012000E0002005
:1006C0007047704700B587B00121084600F084F9F3
:1006D0000121102000F090F900208DF81A0001206F
:1006E0008DF81B0002208DF819008DF8180000020B
:1006F000059005A91B4800F039F802208DF8180074
:100700004002059005A9174800F030F807220A2199
:10071000144800F073F807220921124800F06EF81F
:100720004FF4E13001900020ADF80800ADF80A0068
:10073000ADF80C00ADF810000C20ADF80E0001A9CA
:10074000094800F059FB00F0EEF8012240F2255173
:10075000054800F02BFB0121034800F00EFB07B019
:1007600000BD00000000024000100140F0B50A4644
:1007700000210023002400BF3DE0012505FA01F31C
:10078000156805EA03049C4234D105684F0003262E
:10079000BE40B543056015794E00B5400668354347
:1007A00005601579012D02D01579022D16D18568C5
:1007B0004F000326BE40B543856055794E00B540D5
:1007C000866835438560456801268E40B54345609F
:1007D000456896798E40B6B235434560C5684F008E
:1007E0000326BE40B543C560D5794E00B540C66806
:1007F0003543C560491C1029BFD3F0BDF0B50023B7
:1008000000244D07ED0E02FA05F3CE1000F120058D
:1008100055F826504E07F70E0F26BE40B543CF10B1
:1008200000F1200646F82750CE1000F1200555F8BB
:10083000265045EA0304CE1000F1200545F8264075
:10084000F0BD00BFFEE700001CB50121042000F050
:10085000C3F80420009001208DF8040000208DF8DA
:10086000060001208DF8070000208DF8050069467C
:100870000F48FFF77BFF0820009069460C48FFF700
:1008800075FF0220009069460948FFF76FFF0120BD
:10089000009069460648FFF769FF042004491831B3
:1008A00008800820088002200880012008801CBDE4
:1008B0000008024014E004200A4908804FF4FA704E
:1008C00000F0D8FF08A000F007FB04200549891EAE
:1008D00008804FF4FA7000F0CDFF0AA000F0FCFA97
:1008E000E9E700001A0802404C45445F5461736B0D
:1008F0002052756E6E696E672C4C4544315F4F4EC9
:100900000D0A00004C45445F5461736B2052756EB4
:100910006E696E672C4C4544315F4F46460D0A00A8
:1009200000BFFEE7704708B54FF4A06000F04AF83A
:1009300025208DF8000001208DF801008DF80200BF
:100940008DF80300684600F001F808BD70B500217D
:1009500000230F22C4781CB3174C246804F4E0640D
:10096000C4F5E064C4F30721C1F10404E3B20A4111
:1009700044789C40E1B28478144021430C07210E56
:100980000E4C05786155047804F01F050124AC4035
:1009900005786D11AD0005F1E025C5F8004109E0CD
:1009A000047804F01F050124AC40054D067876114B
:1009B00045F8264070BD00000CED00E000E400E0CA
:1009C00080E100E002490143024A116070470000E3
:1009D0000000FA050CED00E029B1064A1268024356
:1009E000044B1A6004E0034A12688243014B1A6008
:1009F000704700003038024029B1064A12680243AD
:100A0000044B1A6004E0034A12688243014B1A60E7
:100A10007047000044380240F0B500210022002455
:100A2000022500260223324F3F6807F00C0121B156
:100A3000042905D0082937D105E02E4F076036E09C
:100A40002D4F076033E02A4F3F1F3F68C7F38056A2
:100A5000274F3F1F3F6807F03F036EB1264FB7FB9C
:100A6000F3F7DFF88CC0ACF1040CDCF800C0CCF379
:100A7000881C07FB0CF40CE01E4FB7FBF3F7DFF804
:100A800070C0ACF1040CDCF800C0CCF3881C07FB90
:100A90000CF4174F3F1F3F68C7F301477F1C7D00D1
:100AA000B4FBF5F7076002E0124F076000BF00BF1C
:100AB0000F4F3F6807F0F0010909104F7A5C076893
:100AC000D74047600A4F3F6807F4E051890A0B4F4F
:100AD0007A5C4768D7408760054F3F6807F46041FC
:100AE000490B064F7A5C4768D740C760F0BD0000ED
:100AF000083802400024F40000127A001C00002094
:100B00000CB50020019000903448006840F480301B
:100B10003249086000BF3148006800F4003000909E
:100B20000198401C0190009818B90198B0F5A04FA9
:100B3000F1D12A48006800F4003010B10120009083
:100B400001E0002000900098012846D12348403061
:100B5000006840F08050214940310860204800681A
:100B600040F440401E4908601C48083000681B499A
:100B7000083108600846006840F4004008600846F4
:100B8000006840F4A05008601648091F0860081F5C
:100B9000006840F08070091F086000BF0F480068BF
:100BA00000F000700028F9D040F205700E4908608E
:100BB0000A480830006820F003000849083108603E
:100BC0000846006840F00200086000BF0348083093
:100BD000006800F00C000828F8D10CBD0038024075
:100BE0000070004008544007003C024010B501F07E
:100BF000E1F8012801D001F071F810BD10B51548D9
:100C0000006840F47000134908601348006840F021
:100C100001001149086000200F49083108600E48A2
:100C200000680E4908400C4908600D48091D08601D
:100C3000081F006820F48020091F08600020064972
:100C40000C310860FFF75CFF4FF00060014980390C
:100C5000086010BD88ED00E000380240FFFFF6FE9E
:100C60001030002410B50121044800F026F818B116
:100C70000121024800F01EF810BD000000000140F4
:100C800010B50121880700F018F818B10121880774
:100C900000F010F810BD000010B50121044800F06C
:100CA0000CF818B10121024800F004F810BD000052
:100CB00000040040CA430282704730B5024600205B
:100CC00000230024158A05EA0103958905EA010439
:100CD00013B10CB1012000E0002030BD10B540F28E
:100CE0002551054800F055F820B140F22551024841
:100CF00000F034F810BD00000010014010B540F2C3
:100D00002551054800F045F820B140F22551024830
:100D100000F024F810BD00000010014010B540F2B2
:100D20002551054800F035F820B140F22551024820
:100D300000F014F810BD00000048004010B540F26B
:100D40002551054800F025F820B140F22551024810
:100D500000F004F810BD00000014014010B500229E
:100D6000002340F66A14A14200D100BF0A120124F8
:100D70009440A3B2DC43048010BD21B1828942F4C7
:100D80000052828104E082894DF6FF731A4082810D
:100D9000704702460020B1F5007F00D100BF1388E4
:100DA0000B400BB1012000E000207047F0B5034676
:100DB000002400260025002040F66A17B94200D121
:100DC00000BF1846C1F3421401F01F06012707FABD
:100DD00006F5012C01D10C3004E0022C01D11030B9
:100DE00000E014301AB107682F43076002E007687B
:100DF000AF430760F0BD00002DE9FF4705460E46F2
:100E00000024A14600BFA046B08900B100BF2C8AD3
:100E100024F44054F08804432C82AC8941F20C60E5
:100E20008443B08831890843718908430443AC8105
:100E3000AC8A24F44074B0890443AC826846FFF75E
:100E4000EBFD2048854202D01F48854202D1DDF8E3
:100E50000C9001E0DDF80890A88900F4004040B152
:100E600009EBC90000EB091031684900B0FBF1F74C
:100E700007E009EBC90000EB091031688900B0FBFD
:100E8000F1F76420B7FBF0F004012009642101FBB5
:100E90001078A88900F4004040B1322000EBC8006F
:100EA000B0FBF1F000F00700044308E0322000EB53
:100EB00008106421B0FBF1F000F00F0004432C8116
:100EC000BDE8FF870010014000140140C1F3080293
:100ED0008280704700BFFEE70FB4054B10B503A931
:100EE000044A029800F018F810BC5DF814FB0000EA
:100EF000D11000088C00002002E008C8121F08C1B1
:100F0000002AFAD170477047002001E001C1121F8A
:100F1000002AFBD1704700002DE9FF4F8BB09A46A5
:100F20000F460546002606E025280BD052460D99AF
:100F300090476D1C761C28780028F5D10FB03046FC
:100F4000BDE8F08F0024A0460122604900E0044380
:100F500015F8013F203B02FA03F00842F7D1287848
:100F60002E2817D115F8010F44F004042A280ED0BA
:100F70006FF02F022878A0F1300109290AD808EB78
:100F8000880102EB410100EB01086D1CF2E757F804
:100F9000048B6D1C287869283ED006DC0028CDD053
:100FA00063280BD0642804D136E0732810D075284C
:100FB0004BD052460D999047761C85E017F8040BEC
:100FC0008DF8000000208DF80100E946012003E0C3
:100FD00057F8049B4FF0FF3061074FF0000401D435
:100FE0000AE0641C44450DDA8442FADB19F8041067
:100FF0000029F6D106E0641C8442FCDB19F80410D9
:101000000029F8D1264404E019F8010B52460D9945
:101010009047641EF8D257E001CF4FF00A0B00282A
:1010200002DA40422D2102E0210504D52B218DF862
:101030002410012103E0E10705D02021F7E70DF19D
:10104000200908910CE00021F9E701CF4FF00A0BCD
:10105000F9E75946FFF710F901F1300209F8012DBF
:101060000028F6D1ADEB090000F1200B600701D498
:101070004FF00108D84502DDA8EB0B0000E000208E
:101080008046002406E009A85246005D0D9990476D
:10109000641C761C08988442F5DB04E0302052463C
:1010A0000D999047761CB8F10001A8F10108F5DC14
:1010B00005E019F8010B52460D999047761CBBF1DB
:1010C0000001ABF1010BF4DC6D1C34E709280100D1
:1010D00070B504460D46E1B20548FFF7F7FE00BFC4
:1010E00080210348FFF755FE0028F9D0204670BD47
:1010F000001001400EB5FFF731F90CA0FFF7ECFE30
:101100000D480E4903220023CDE9002102908022E0
:101110000BA10F4800F0FCFD0E490860084600686E
:1011200008B100F06BFC00BFFEE700007374617251
:1011300074210D0A0000000090040020900000209F
:101140004170705461736B43726561746500000097
:10115000C9020008140000202DE9F04105460E46A2
:101160001C4807681C480068001D00F04BFA50B985
:101170001948006890F82C10012088401749096828
:10118000814316480160681C38B936B112480168BD
:10119000091D134800F080FA1AE07C190E48006817
:1011A0004460BC4207D20C480168091D0D48006824
:1011B00000F058FA0CE008480168091D0A48006868
:1011C00000F050FA09480068844201D207480460E0
:1011D000BDE8F081400000202C00002044000020E9
:1011E000900E002034000020300000205C00002021
:1011F00010B5044600F05CFA23480068401C224900
:1012000008602248006840B9204804600846006829
:1012100001280DD100F026F90AE01D48006838B910
:101220001A480068C06AE16A884201D81748046019
:1012300018480068401C1749086094F82C100120D9
:10124000884015490968084313490860E16A01EBC1
:101250008101124A02EB8100211D00F01DFA00F00D
:1012600069FA0B48006868B108480068C06AE16A1A
:10127000884207D24FF0805009490860BFF34F8F72
:10128000BFF36F8F10BD00003C0000202C00002039
:10129000480000205800002044000020C00B00201F
:1012A00004ED00E070B523E000F00EFC1348006888
:1012B00008B9012000E00020054600F03DFEBDB960
:1012C00000F0F6F90D48C068C468201D00F09AF9D6
:1012D0000B480068401E0A4908600A480068401E22
:1012E0000849086000F026FA204600F00DF800BF1B
:1012F000044800680028D7D170BD00007C0E002093
:101300003C0000203800002010B5044694F8490045
:1013100030B9206B00F044FA204600F041FA15E0A5
:1013200094F84900012803D1204600F039FA0DE075
:1013300094F84900022801D1012000E0002028B9DA
:1013400040F6296202A108A0FFF7C6FD10BD00000B
:101350002E2E5C4652454552544F535C7372635C6B
:101360007461736B732E63004572726F723A2573EA
:101370002C25640D0A00000000BFFFF793FF06480C
:1013800000680128F9D94FF0805004490860BFF384
:101390004F8FBFF36F8FF0E7C00B002004ED00E02C
:1013A0002DE9FF5F81460E469246DDE90E7B109CDB
:1013B000AAF10100216B01EB800828F0070808F072
:1013C000070008B9012000E0002028B940F22B32C4
:1013D0001AA120A0FFF780FD002507E0715D04F150
:1013E00034004155705D00B902E06D1C102DF5D33D
:1013F00000BF002143200155202F00D31F27E762A3
:10140000201D00F02CF904F1180000F028F92461E7
:10141000C7F12000A06164620020606484F8480085
:1014200049464046039A00F0D7F82060BBF1000F10
:1014300001D0CBF80040BDE8FF9F00002E2E5C4697
:1014400052454552544F535C7372635C7461736BC5
:10145000732E63004572726F723A25732C25640DEA
:101460000A00000010B5002407E004EB84010F4AD5
:1014700002EB810000F0E6F8641C202CF5D30C4848
:1014800000F0E0F80B4800F0DDF80B4800F0DAF867
:101490000A4800F0D7F80A4800F0D4F8044809498F
:1014A000086004480849086010BD0000C00B002017
:1014B000400E0020540E0020680E00207C0E0020FC
:1014C000900E0020300000203400002010B50146AE
:1014D000164800E0006803688B42FBD3024643686D
:1014E00013448B4204D143684C6823444360014653
:1014F0000A464B6813440468A34211D10C4C03689C
:101500002468A34208D04B680468646823444B6095
:1015100003681B680B6005E0054B1B680B6001E06E
:1015200003680B60884200D0016010BD6800002095
:10153000700000200A490968096809B9012100E022
:10154000002121B14FF0FF31064A116006E0044945
:101550000968C968C868034A41681160704700009B
:10156000300000205C0000200C480068401C08B9D6
:10157000012000E0002028B940F20F1208A112A0BB
:10158000FFF7AAFC00BF502080F31188BFF34F8FF4
:10159000BFF36F8F00BF00BFFEE700008000002098
:1015A0002E2E5C4652454552544F535C706F7274F8
:1015B0005C525644535C41524D5F434D34465C701F
:1015C0006F72742E630000004572726F723A257359
:1015D0002C25640D0A000000001F4FF0807303608B
:1015E000001F21F001030360001F054B0360143846
:1015F0000260001F6FF00203036020387047000094
:101600006915000801460A69D1E901309860D1E9FD
:10161000010358605068884201D1886850600020FA
:1016200008611068401E106010687047034B03602B
:10163000034B0B608023136070470000280B0020D1
:101640002805002000F1080141604FF0FF31816062
:1016500000F10801C16001610021016070470021B3
:101660000161704710B502460B685C1C0CB910692B
:1016700007E002F1080000E04068446824689C42EA
:10168000FAD944684C604C68A160886041600A6186
:101690001468641C146010BD42684A6093688B60D3
:1016A000936859609160086103685B1C0360704730
:1016B00010B500BF502080F31188BFF34F8FBFF3E8
:1016C0006F8F00BF0B480068401C0A49086008463D
:1016D000006801280DD108480068C0B208B901208F
:1016E00000E0002028B940F2B91204A10DA0FFF7D4
:1016F000F3FB10BD8000002004ED00E02E2E5C46C0
:1017000052454552544F535C706F72745C5256444C
:10171000535C41524D5F434D34465C706F72742E82
:10172000630000004572726F723A25732C25640DB8
:101730000A00000010B50B48006828B94FF4E072A9
:1017400009A113A0FFF7C8FB06480068401E054921
:1017500008600846006820B9002080F3118800BFA7
:1017600000BF10BD800000202E2E5C465245455221
:10177000544F535C706F72745C525644535C4152C8
:101780004D5F434D34465C706F72742E63000000F1
:101790004572726F723A25732C25640D0A000000A1
:1017A00070B506463546002E35D0083D2C461A4900
:1017B00060680968084008B1012000E0002028B9ED
:1017C0004FF4A07215A11EA0FFF786FB206808B990
:1017D000012000E0002028B940F241120FA118A01A
:1017E000FFF77AFB0C4960680968084098B12068E7
:1017F00088B90949606809688843606000F064F945
:101800001349606809680844114908602046FFF7D9
:101810005DFE00F091FB70BD7C0000202E2E5C462A
:1018200052454552544F535C706F72745C4D656DF8
:101830004D616E675C686561705F342E6300000007
:101840004572726F723A25732C25640D0A000000F0
:1018500074000020064800684FF47A71B0FBF1F084
:10186000401E4FF0E02148610720086170470000EA
:101870000000002070B504460025ACB10F48006898
:1018800008B9012000E0002028B940F2CF420CA1A5
:1018900011A0FFF721FB00F017F900212046FFF708
:1018A0005BFC00F049FB05463DB94FF080500E4906
:1018B0000860BFF34F8FBFF36F8F70BD64000020CF
:1018C0002E2E5C4652454552544F535C7372635CF6
:1018D0007461736B732E63004572726F723A257375
:1018E0002C25640D0A00000004ED00E070B50546EB
:1018F000FFF7DEFE15B92D48006800E028460446D3
:10190000201DFFF77FFE78B9E06A00EB80002849D0
:1019100051F8200040B994F82C1001208840254946
:101920000968814323480160A06A18B104F11800D6
:10193000FFF768FE20480068401C1F4908601B48EC
:101940000068844209D1211D1C48FFF7A5FE1C48F0
:101950000068401C1A49086009E01A480068401EE7
:10196000184908602046FFF7CFFCFFF7E3FDFFF7BB
:10197000E1FE15480068C0B10C480068844214D1EB
:101980001248006808B9012000E0002028B940F2A0
:1019900065420FA114A0FFF79FFA4FF0805016493F
:1019A0000860BFF34F8FBFF36F8F70BD2C00002016
:1019B000C00B002044000020580000207C0E0020B6
:1019C000380000203C000020480000206400002077
:1019D0002E2E5C4652454552544F535C7372635CE5
:1019E0007461736B732E63004572726F723A257364
:1019F0002C25640D0A00000004ED00E010B586B04F
:101A000000200590049003AA04A905A8FFF70EFE84
:101A10000022DDE904101346CDE90021029019A14E
:101A20001A48039A00F074F91949086008460068DA
:101A300008B1012400E00024012C15D100BF502082
:101A400080F31188BFF34F8FBFF36F8F00BF4FF04C
:101A5000FF301049086001200F49086000200F493D
:101A6000086000F08FF80BE0601C08B1012000E076
:101A7000002028B940F2847209A10FA0FFF72CFAC8
:101A800006B010BD49444C45000000007913000821
:101A9000600000205C000020480000204000002082
:101AA0002E2E5C4652454552544F535C7372635C14
:101AB0007461736B732E63004572726F723A257393
:101AC0002C25640D0A00000002480068401C0149F2
:101AD000086070476400002010B51B48006818B10A
:101AE00001201A4908602DE00020184908601848B4
:101AF0000068B0FA80F0C0F11F0404EB84001549BF
:101B000051F8200008B1012000E0002028B940F67B
:101B1000F62211A116A0FFF7DFF904EB84010D4AAC
:101B200002EB810041684968416000F108014268A8
:101B30008A4202D14168496841604168C968104AD7
:101B4000116000BF10BD00006400002050000020A4
:101B500044000020C00B00202E2E5C46524545520A
:101B6000544F535C7372635C7461736B732E6300C8
:101B70004572726F723A25732C25640D0A000000BD
:101B80002C0000201CB5404800684049884201D024
:101B9000012000E0002028B940F259123CA146A0E3
:101BA000FFF79AF9384800683849491E884201D041
:101BB000012000E0002028B94FF4AD7234A13EA00E
:101BC000FFF78AF9404C204600780190FF2021461B
:101BD00008700846007800909DF8000000F0F000C2
:101BE0009DF80010884201D1012000E0002028B9B2
:101BF00040F2731226A130A0FFF76EF99DF80000A5
:101C000000F050003149087007203149086009E0B0
:101C10002F480068401E2E4908609DF800004006CD
:101C2000000E00909DF8000000F080008028EFD0AA
:101C3000274800680002264908600846008800F42A
:101C4000E06008602049019808700F482030006863
:101C500040F470000C49203108600846006840F0EC
:101C600070400860FFF7F6FD00201A490860FEF793
:101C7000B5FA1948006840F0404017490860FEF77F
:101C80009DFA00201CBD000000ED00E071C20F4174
:101C90002E2E5C4652454552544F535C706F727401
:101CA0005C525644535C41524D5F434D34465C7028
:101CB0006F72742E630000004572726F723A257362
:101CC0002C25640D0A00000000E400E084000020E0
:101CD000880000208000002034EF00E010B500BF35
:101CE000502080F31188BFF34F8FBFF36F8F00BF79
:101CF00000F070F818B14FF080500449086000BF40
:101D0000002080F3118800BF10BD000004ED00E04A
:101D10002DE9F04F85B00746884691469A46DDE9A1
:101D20000EB6109C0EB1012000E0002028B940F250
:101D3000552216A11BA0FFF7CFF80CB1012000E03F
:101D4000002028B940F2562210A116A0FFF7C4F8CF
:101D5000ACB1A6B125462E63022085F849000020CB
:101D600004A953464A46CDE900B1CDE902504146A7
:101D70003846FFF715FB2846FFF73AFA01E0002046
:101D80000490049805B0BDE8F08F00002E2E5C464C
:101D900052454552544F535C7372635C7461736B6C
:101DA000732E63004572726F723A25732C25640D91
:101DB0000A0000000549096809B9012005E0044945
:101DC000096809B9022000E000207047480000209F
:101DD000640000202DE9F0414FF000084148006800
:101DE000002872D140480068451C3F480560EDB9A5
:101DF0003E480068006808B9012000E0002028B9CA
:101E000040F6D9123AA140A0FFF766F837480768B4
:101E100041480068354908603F4807603F4800680E
:101E2000401C3E490860FFF785FB00BF3C48006846
:101E300085423CD300BF2D480068006808B90120E6
:101E400000E0002020B14FF0FF30354908602DE060
:101E500026480068C068C4686668B54202D2304847
:101E6000066023E0201DFFF7CDFBA06A18B104F146
:101E70001800FFF7C7FB94F82C100120884029496F
:101E80000968084327490860E16A01EB8101264A95
:101E900002EB8100211DFFF7FFFB2449E06A09687E
:101EA000C96A8842C7D34FF00108C4E700BF1F4882
:101EB0000068C06A00EB80001B4951F8200001282F
:101EC00001D94FF0010805E0FFE719480068401C00
:101ED000174908601748006808B14FF001084046EC
:101EE000BDE8F081640000204000002030000020A8
:101EF0002E2E5C4652454552544F535C7372635CC0
:101F00007461736B732E63004572726F723A25733E
:101F10002C25640D0A00000034000020540000202D
:101F20005C00002044000020C00B00202C0000209A
:101F30004C0000205000002070B5002400263448DA
:101F4000006828B94FF4FD6232A138A0FEF7C4FF43
:101F5000FFF7AEFB2E480068401E2D49086008467A
:101F6000006800284FD13548006800284BD024E095
:101F70003348C068C46804F11800FFF743FB201D14
:101F8000FFF740FB94F82C10012088402D49096888
:101F900008432C490860E16A01EB81012A4A02EBFF
:101FA0008100211DFFF778FB2849E06A0968C96AAA
:101FB000884202D30120264908602148006808B9F8
:101FC000012000E000200028D2D00CB1FFF7B2FAC7
:101FD0002048056865B100BFFFF7FCFE10B1012085
:101FE0001B4908606D1E002DF6D1002019490860BC
:101FF0001748006838B10126300717490860BFF359
:102000004F8FBFF36F8FFFF795FB304670BD000019
:10201000640000202E2E5C4652454552544F535CBE
:102020007372635C7461736B732E63004572726FBD
:10203000723A25732C25640D0A0000003C00002034
:10204000680E002044000020C00B00202C0000205F
:10205000500000204C00002004ED00E07C2000082F
:102060000000002090000000F80E00080C2100087D
:102070009000002018120000080F0008007A030AE0
:102080000000000000000000010203040607080928
:102090000000000000000000000000000102030436
:1020A0000102030406070809000000000000000008
:1020B0000000000000000000000000000000000020
:1020C0000000000000000000000000000000000010
:1020D0000000000000000000000000000000000000
:1020E00000000000000000000000000000000000F0
:1020F000000000000000000000000000AAAAAAAA38
:0C210000000000000000000000000000D3
:040000050800018965
:00000001FF
